S02400004459495F5553425F4C45445F436F6E74726F6C6C65725F41565236342E7372656368
S11300000C9482000C949F000C949F000C949F000D
S11300100C949F000C949F000C949F000C949F00E0
S11300200C949F000C949F000C949F000C94DC098A
S11300300C949F000C949F000C949F000C949F00C0
S11300400C949F000C949F000C949F000C949F00B0
S11300500C949F000C949F000C949F000C949F00A0
S11300600C949F000C949F000C949F000C949F0090
S11300700C949F000C949F000C949F000C949F0080
S11300800C949F000C949F000C949F000C949F0070
S11300900C949F000C949F000C949F000C949F0060
S11300A00C949F000C949F000C949F000C949F0050
S11300B00C949F000C949F000C949F000C949F0040
S11300C00C949F000C949F000C949F000C949F0030
S11300D00C949F000C94D50A0C949F000C949F00E0
S11300E00C949F000C949F000C949F000C949F0010
S11300F00C949F000C949F000C949F000C949F0000
S11301000C949F0011241FBECFEFCDBFDFE7DEBFED
S113011010E6A0E0B0E6E6EAFBE102C005900D922D
S1130120A83AB107D9F721E6A8EAB0E601C01D92C2
S1130130A631B207E1F70E94A4000C94D10D0C94EF
S113014000000E94E7020895CF93DF93CDB7DEB796
S1130150C154D109CDBFDEBFF8940E94A1000E9412
S11301604407789482B18F70882EFE0131968AE319
S1130170DF011D928A95E9F79E01255C3F4F85E0DA
S1130180F90111928A95E9F780EF21968FAF2197B3
S113019022968FAF229702E010E042E050E0BE01C9
S11301A0605C7F4F80E50E94ED06811107C0ACAC16
S11301B0B12CBA2CAA248BADA82A02C0A12CB12C34
S11301C0BF92AF9282E390E69F938F930E94F90AC5
S11301D00F900F900F900F90FFEFAF16BF06E1F551
S11301E080EF8BAF8CAF1DAE1EAE44E050E0BE017D
S11301F0655C7F4F80E50E94B506811125C002E051
S113020010E09E01255C3F4F42E050E0BE01605C7F
S11302107F4F80E50E94ED06811119C0ACACB12C72
S1130220BA2CAA248BADA82AA114B10491F4BF92CC
S1130230AF9284E490E69F938F930E94F90A0F9003
S11302400F900F900F9005C0A12CB12C02C0A12CCF
S1130250B12CE12CF12C0FC0BF92AF9287E390E652
S11302609F938F930E94F90A0F900F900F900F9015
S1130270F0CFE12CF12C811015C085E30E94230AF4
S1130280853029F085E30E94230A823081F482E0DC
S11302908093A8600E94440785E30E94230A853066
S11302A031F403C01092A86002C0A12CB12C80913B
S11302B0A860882319F08230E1F1DDCF23E32E9D7D
S11302C0C0012F9D900D112421968FAF2197229666
S11302D09FAF229703E310E09E012F5F3F4F42E060
S11302E050E0BE01605C7F4F80E50E94ED06811105
S11302F0C2CF0E94D909FF92EF9287E590E69F93BF
S11303008F930E94F90A0F900F900F900F9004C0E2
S1130310CE0101960E9435080E94D6099BA989172F
S1130320B8F32FEFE21AF20AAE14BF0408F4A1CF17
S1130330A2CF0E94290A882309F49DCF83E30E9457
S1130340230AE82EF12CFE2CEE2484E30E94230AD7
S1130350E82A83E38E9D60018F9DD00C1124C9820D
S1130360DA82912C0FC0092D10E00E5F1F4F892DEA
S11303700E94230AE1E0F0E0EC0FFD1FE00FF11F03
S11303808083939482E3891570F745E350E0BE01BE
S11303906F5F7F4F80E50E94B50681116CCFAE146C
S11303A0BF04F0F480EF8BAF8CAFEDAEFEAE44E053
S11303B050E0BE01655C7F4F80E50E94B506811167
S11303C00EC0FF92EF928BE690E69F938F930E946C
S11303D0F90A0F900F900F900F90570101C0570129
S11303E0DF92CF928FE790E69F938F930E94F90A52
S11303F02196CFAE21972296DFAE229703E310E039
S11304009E012F5F3F4F42E050E0BE01605C7F4F92
S113041080E50E94ED060F900F900F900F908111D0
S113042008C00E942C0AC7010E94420A80E00E9470
S11304303B0A9FE3ADE0B3E09150A040B040E1F748
S113044000C0000018CF1092A90080E0089540E297
S113045068ED88E690E00E943F0780E0089580E020
S1130460089580E008C0E82FF0E0E05FFB4F908142
S1130470986090838F5F8830B0F380E008C0E82FE5
S1130480F0E0E05DFB4F9081986090838F5F88304F
S1130490B0F380E008C0E82FF0E0E05BFB4F908110
S11304A0986090838F5F8830B0F380E008C0E82FB5
S11304B0F0E0E059FB4F9081986090838F5F883023
S11304C0B0F380E008C0E82FF0E0E057FB4F9081E4
S11304D0986090838F5F8830B0F380E008C0E82F85
S11304E0F0E0E055FB4F9081986090838F5F8830F7
S11304F0B0F380E008C0E82FF0E0E053FB4F9081B8
S1130500986090838F5F8830B0F3089580B18F7DB9
S113051080B9E5E1F4E08081877F8083E0EEF5E057
S113052082818160828381B18F7E81B980B1806153
S113053080B98281816082830E94F009089584B128
S11305408D7F84B9E1E3F4E08081877F808385B186
S11305508E7F85B984B1816084B90E942F0A089581
S113056085B1877F85B984B1886084B9E3E3F4E019
S11305708081877F808380818F7780838081887F5B
S11305808083A0EEB5E015968C911597886015963A
S11305908C93159785B18B7F85B984B1846084B9B8
S11305A0E2E3F4E08081877F808380818F7780839A
S11305B08081887F808315968C9115978860159625
S11305C08C930E94F80508950E94C90908950E9419
S11305D0310280B18E7F80B9E0E1F4E080818860EF
S11305E0808380B18D7F80B9E1E1F4E0808188600F
S11305F0808380B18B7F80B9E2E1F4E08081886000
S1130600808380B1877F80B9E3E1F4E080818860F2
S1130610808381B18F7B81B980B1806480B981B1DD
S11306208F7781B980B1806880B985B18F7E85B9B3
S113063084B1806184B985B18F7D85B984B18062CC
S113064084B985B18F7B85B984B1806484B985B15F
S11306508F7785B984B1806884B989B18E7F89B96F
S113066088B1816088B989B18D7F89B988B1826088
S113067088B989B18B7F89B988B1846088B989B117
S1130680877F89B988B1886088B989B18F7E89B933
S113069088B1806188B989B18F7D89B988B1806258
S11306A088B989B18F7B89B988B1806488B989B1E7
S11306B08F7789B988B1806888B98DB18E7F8DB9FB
S11306C08CB181608CB98DB18D7F8DB98CB1826014
S11306D08CB98DB1877F8DB98CB188608CB98DB19F
S11306E08F7E8DB98CB180618CB98DB18F7D8DB9C0
S11306F08CB180628CB98DB18F7B8DB98CB18064E3
S11307008CB98DB18F778DB98CB180688CB981B378
S11307108E7F81BB80B3816080BB81B38D7F81BBC1
S113072080B3826080BB81B38B7F81BB80B38460E4
S113073080BB81B3877F81BB80B3886080BB81B37A
S11307408F7E81BB80B3806180BB81B38F7D81BB91
S113075080B3806280BB81B38F7B81BB80B38064B4
S113076080BB81B38F7781BB80B3806880BB85B346
S11307708E7F85BB84B3816084BB85B38D7F85BB4D
S113078084B3826084BB85B38B7F85BB84B3846070
S113079084BB89B38E7F89BB88B3816088BB89B3EE
S11307A08D7F89BB88B3826088BB89B38B7F89BB0B
S11307B088B3846088BB89B3877F89BB88B388602A
S11307C088BB89B38F7E89BB88B3806188BB89B3BA
S11307D08F7D89BB88B3806288BB89B38F7B89BBDB
S11307E088B3806488BB89B38F7789BB88B38068FA
S11307F088BB0E9427020E9486020E949F020E94D8
S1130800C7090E942F020E94B0020E94E4020E94C3
S113081023020895E0E2F9E084818860848385817D
S113082081608583E9EAF0E680818E7F8083138688
S11308308EE00895E9EAF0E680818E7F8083138656
S113084080E00895E0E2F9E08481836084830E947B
S11308501A040895E9EAF0E6808188608083818142
S113086090E0880F991F81608093270984E00895A0
S11308700E942A0408950E942A040895E9EAF0E6F1
S11308808081886080838181880F8093270983E039
S113089008950E943E040895A9EAB0E68C91877FEA
S11308A08C9382E01B968C931B975096ED91FC9150
S11308B051975C968D919C915D970995823019F0C2
S11308C0833021F006C00E943B0408950E9449042D
S11308D008950E9422040895E0E2F9E084818B7F68
S11308E0848384E00895E0E2F9E084818B7F84834B
S11308F083E00895E0E2F9E0848184608483848164
S1130900836084830E941A040895E0E2F9E08481FC
S11309108460848388E008958091250984FF19C048
S1130920A9EAB0E65296ED91FC9153975E968D91AB
S11309309C915F970995823019F0833021F006C0AD
S11309400E943B0408950E94490408950E942204D1
S11309500895E9EAF0E68081877F8083A281B381EC
S1130960CD010196828393838C918093280984819D
S11309709581019784839583892B11F083E00895F1
S113098085E00895CF93DF93E9EAF0E68081877FDD
S1130990808384819581019731F4E0E2F9E08481D8
S11309A08460848305C0E0E2F9E084818B7F8483E2
S11309B0E9EAF0E684819581019784839583892B04
S11309C0A9F0DF01C281D381E0E2F9E08085888368
S11309D012968D919C911397019612968D939C93E8
S11309E0139784818260848384E026C0A9EAB0E6F8
S11309F01296ED91FC9113978091280980831296A9
S1130A008D919C911397019612968D939C931397B5
S1130A108C9184608C931C96ED91FC911D97589653
S1130A208D919C91599709958250823018F40E94B7
S1130A30850402C00E947A04DF91CF9108958091C9
S1130A40250984FF19C0A9EAB0E65296ED91FC91FC
S1130A5053975E968D919C915F970995823019F01A
S1130A60833021F006C00E943B0408950E9449048B
S1130A7008950E9422040895A9EAB0E68C91846046
S1130A808C931C96ED91FC911D9758968D919C9199
S1130A9059970995833039F0843041F0823049F414
S1130AA00E943B0408950E94490408950E948C0406
S1130AB008950E9422040895E0E2F9E085818860A7
S1130AC08583A9EAB0E682E01B968C931B971E9659
S1130AD0ED91FC911F975A968D919C915B97099586
S1130AE0823019F0833021F006C00E943B0408953F
S1130AF00E94490408950E940A040895E0E2F9E07E
S1130B00848188608483858181608583E9EAF0E655
S1130B1080818E7F808382E083878EE00895CF93E7
S1130B20DF93E0E2F9E08581806C85838091A960A0
S1130B3083FF07C08091250984FF03C08FE0809361
S1130B40B3608091250983FF03C080E18093B36083
S1130B508091250982FF03C081E18093B360C9EAD3
S1130B60D0E6EA85F0E0EE0FFF1FE050F04A019076
S1130B70F081E02D09958A87DF91CF91089581E076
S1130B80089585E008956115710591F090E0FC01E8
S1130B903696EE0FFF1FE755FF4960837183FC0112
S1130BA03C96EE0FFF1FE755FF494083518308959C
S1130BB090E0FC013696EE0FFF1FE755FF492FEB3F
S1130BC035E020833183FC013C96EE0FFF1FE7558F
S1130BD0FF49108211820895AB01BC0180E00E949C
S1130BE0C3050895AB01BC0182E00E94C3050895CA
S1130BF0E0E2F9E08FE5868381E0838308959091B4
S1130C00A96091FD34C0E9EAF0E68183892F8E7FE3
S1130C1082609EE0928724EF31E020873187877FCE
S1130C20846080838FEB95E084879587108E118E86
S1130C3086879787128E138E808B918B148E158ED8
S1130C40828B938B168E178E81EC95E0848B958B1B
S1130C5010A211A2E0E2F9E0848188608483858196
S1130C60816085838581806C858380E0089581E03F
S1130C7008958091250982FF07C0E9EAF0E68081A2
S1130C808E7F808382E083878091A96080FD17C076
S1130C90E9EAF0E68D7F80838FEF8183A0E2B9E0FB
S1130CA015968C911597806C15968C9315971396C1
S1130CB08C9113978F7313968C938385089581E099
S1130CC008959C019091A96092FF09C0E9EAF0E6B9
S1130CD02283338364837583892F8B7F8083089574
S1130CE09091A96090FD2CC0E9EAF0E691609083B0
S1130CF0882321F081E08093B36003C082E0809375
S1130D00B3600E948F0516C08FE493EC0197F1F74E
S1130D1000C0000080912509882324F080912509D2
S1130D2086FFF8CF8FE493EC0197F1F700C0000041
S1130D300E948F058091A96080FDE6CF80E0089530
S1130D4081E0089580E00E9470060895FC016081AE
S1130D507181828193810E94610660E070E080E08D
S1130D6090E00E94EC0582E00895CF92DF92EF922A
S1130D70FF921F93CF93DF93182F7B016A01C0E189
S1130D80D7E2812F0E94FF05813011F42197C9F722
S1130D90CD2BC1F0B601C7010E94610660E070E08E
S1130DA08DE397E00E94F2050E94A206C0E1D7E21B
S1130DB00E943906813011F42197D1F7CD2B21F40B
S1130DC082E003C081E001C080E0DF91CF911F91F8
S1130DD0FF90EF90DF90CF900895AF92BF92CF92A3
S1130DE0DF92FF920F931F93CF93DF9300D000D035
S1130DF0CDB7DEB7F82E6B015A012B833C830983F0
S1130E001A8300E117E28F2D0E94FF05813019F447
S1130E1001501109C1F7012B01F1BE016F5F7F4F32
S1130E2086EA96E00E94EC05B501C6010E946106BF
S1130E3060E070E08DE397E00E94F2050E94A20654
S1130E4000E117E20E943906813019F401501109BA
S1130E50C9F7012B21F482E003C081E001C080E0E6
S1130E602496CDBFDEBFDF91CF911F910F91FF90EC
S1130E70DF90CF90BF90AF90089583E008951BBE9C
S1130E80FC0164BF4083089584B1806884B988B14B
S1130E90886088B988B1806888B98CB188608CB959
S1130EA08CB180688CB980B3886080BB80B3806863
S1130EB080BB80B1806480B988B3886088BB88B304
S1130EC0806888BB84B1806284B988B1826088B943
S1130ED088B1806288B98CB182608CB98CB180622F
S1130EE08CB980B3826080BB80B3806280BB84B3E2
S1130EF0826084BB88B3826088BB88B3806288BB0D
S1130F0084B1806484B988B1846088B988B180640C
S1130F1088B98CB184608CB98CB180648CB980B38D
S1130F20846080BB80B3806480BB84B3846084BBF2
S1130F3088B3846088BB88B3806488BB84B18061D3
S1130F4084B988B1816088B988B1806188B98CB16D
S1130F5081608CB98CB180618CB980B3816080BBB5
S1130F6080B3806180BB84B3816084BB88B38160BB
S1130F7088BB88B3806188BB85B1806285B985B13F
S1130F80806485B985B1806885B985B1806185B98A
S1130F9089B1826089B989B1846089B989B188606D
S1130FA089B989B1816089B989B1806289B989B106
S1130FB0806489B989B1806889B989B1806189B946
S1130FC08DB182608DB98DB184608DB98DB1886029
S1130FD08DB98DB181608DB98DB180628DB98DB1BE
S1130FE080648DB98DB180688DB98DB180618DB902
S1130FF081B3826081BB81B3846081BB81B388602B
S113100081BB81B3816081BB81B3806281BB81B3C9
S1131010806481BB81B3806881BB81B3806181BB03
S113102085B3826085BB85B3846085BB81B18064F0
S113103081B985B3816085BB89B3826089BB89B37B
S1131040846089BB89B3886089BB89B3816089BBAB
S113105089B3806289BB89B3806489BB89B38068A2
S113106089BB89B3806189BB0895FC01808180FFBD
S113107004C085B1806885B903C085B18F7785B90F
S1131080808181FF04C085B1806485B903C085B1C6
S11310908F7B85B9808182FF04C085B1806285B968
S11310A003C085B18F7D85B9808183FF04C085B17C
S11310B0806185B903C085B18F7E85B9808184FF45
S11310C004C089B1886089B903C089B1877F89B9AF
S11310D0808185FF04C089B1846089B903C089B166
S11310E08B7F89B9808186FF04C089B1826089B908
S11310F003C089B18D7F89B98081882324F489B1A3
S1131100816089B903C089B18E7F89B9818180FFEB
S113111004C089B1806889B903C089B18F7789B95E
S1131120818181FF04C089B1806489B903C089B118
S11311308F7B89B9818182FF04C089B1806289B9BA
S113114003C089B18F7D89B9818183FF04C089B1CE
S1131150806189B903C089B18F7E89B9818184FF97
S113116004C08DB188608DB903C08DB1877F8DB9FE
S1131170818185FF04C08DB184608DB903C08DB1B8
S11311808B7F8DB9818186FF04C08DB182608DB95A
S113119003C08DB18D7F8DB98181882324F48DB1F5
S11311A081608DB903C08DB18E7F8DB9828180FF3E
S11311B004C08DB180688DB903C08DB18F778DB9AE
S11311C0828181FF04C08DB180648DB903C08DB16B
S11311D08F7B8DB9828182FF04C08DB180628DB90D
S11311E003C08DB18F7D8DB9828183FF04C08DB121
S11311F080618DB903C08DB18F7E8DB9828184FFEA
S113120004C081B3886081BB03C081B3877F81BB85
S1131210828185FF04C081B3846081BB03C081B334
S11312208B7F81BB828186FF04C081B3826081BBD6
S113123003C081B38D7F81BB8281882324F481B371
S1131240816081BB03C081B38E7F81BB838180FFBA
S113125004C081B3806881BB03C081B38F7781BB35
S1131260838181FF04C081B3806481BB03C081B3E7
S11312708F7B81BB838182FF04C081B3806281BB89
S113128003C081B38F7D81BB838183FF04C081B39D
S1131290806181BB03C081B38F7E81BB838184FF66
S11312A004C081B1806481B903C081B18F7B81B9ED
S11312B0838185FF04C085B3846085BB03C085B387
S11312C08B7F85BB838186FF04C085B3826085BB29
S11312D003C085B38D7F85BB8381882324F485B3C4
S11312E0816085BB03C085B38E7F85BB848180FF0D
S11312F004C089B3886089BB03C089B3877F89BB75
S1131300848181FF04C089B3846089BB03C089B32D
S11313108B7F89BB848182FF04C089B3826089BBCF
S113132003C089B38D7F89BB848183FF04C089B3E3
S1131330816089BB03C089B38E7F89BB848184FFAC
S113134004C089B3806889BB03C089B38F7789BB24
S1131350848185FF04C089B3806489BB03C089B3D9
S11313608F7B89BB848186FF04C089B3806289BB7B
S113137003C089B38F7D89BB8481882324F489B316
S1131380806189BB089589B38F7E89BB089580E00D
S11313900895E0E0FAE080E18183828786E891E0C5
S11313A086A397A38DE0808380E008958091CD602B
S11313B008951092CD6008951F920F920FB60F9268
S11313C011248F938091CD608F5F8093CD6080E1F5
S11313D080930B0A8F910F900FBE0F901F9018955A
S11313E0E0E0F8E086EB92E08087918780EC8683EA
S11313F084E290E6809312619093136180E00895F3
S11314009091040895FFFCCF8093020808950E94F0
S1131410000A80E090E00895CF93DF93EC01E0E0D0
S1131420F0E007C0DE01A60FB11D9C91E90FF11D8C
S11314306F5F6417B8F3211102C08F2F01C08E2F84
S1131440DF91CF910895E82FF0E0E852FF498081C1
S113145008958091CE6008951092CE600895E0E6DC
S1131460F8E086EB92E08087918780E8858380ECC2
S1131470868380E008959091640895FFFCCF809363
S113148062080895CF93DF9320E006C0E22FF0E0D6
S1131490EF52FF4910822F5F2730C0F3C1EDD0E631
S11314A02EE128832CED29832CEA2A839B838C83C9
S11314B020E045E063E0CE010E940C0A8E8321E027
S11314C045E063E0CE010E940C0A8D83C0E008C0B1
S11314D0EC2FF0E0EF52FF4980810E943B0ACF5F7E
S11314E0C730B0F3DF91CF910895CF938091600816
S11314F09091D0609330A9F5E091CF60F0E0E8528C
S1131500FF4980838091CF60873329F5C0910F61B3
S113151020E046E360E088ED90E60E940C0AC813E0
S113152015C0C0910E6121E046E360E088ED90E6CD
S11315300E940C0AC8130AC086E00E943B0A8091EC
S11315400D61853019F481E08093CE601092D060F3
S11315501092CF6028C08091CF608F5F8093CF605E
S113156022C09091D060923029F48C3D19F493E01C
S11315709093D0609091D060913031F48C3A21F402
S113158092E09093D06006C09091D060913011F4B5
S11315901092D0609091D060911105C08E3119F4F1
S11315A081E08093D060CF9108951F920F920FB67F
S11315B00F9211242F933F934F935F936F937F93D5
S11315C08F939F93AF93BF93EF93FF930E94750AFA
S11315D0FF91EF91BF91AF919F918F917F916F9107
S11315E05F914F913F912F910F900FBE0F901F90DD
S11315F01895A0E0B0E0EFEFFAE00C94B00DAE0166
S11316004B5F5F4FFA0161917191AF01809112615B
S1131610909113610E940F0BE2E00C94C90DABE0B2
S1131620B0E0E5E1FBE00C94A00D6C017B018A01C4
S1131630FC0116821782838181FFCCC1CE01019601
S11316403C01F6019381F70193FD859193FF81910C
S11316507F01882309F4BAC1853239F493FD859159
S113166093FF81917F01853229F4B60190E00E94B5
S1131670060DE7CF912C212C312CFFE1F315D8F086
S11316808B3279F038F4803279F08332A1F4232D4F
S113169020611DC08D3261F0803369F4232D2160F7
S11316A016C0832D8260382EE32DE4603E2E2AC0BE
S11316B0F32DF8601DC037FC2DC020ED280F2A3013
S11316C040F08E32B9F436FC81C1232D2064322ED1
S11316D019C036FE06C08AE0989E200D1124922E71
S11316E011C0EAE02E9E200D1124222EF32DF0626B
S11316F03F2E08C08C3621F4832D8068382E02C01A
S1131700883641F4F70193FD859193FF81917F0120
S11317108111B3CF982F9F7D9554933028F40C5F9B
S11317201F4F9FE399830DC0833631F0833771F0E7
S1131730833509F059C021C0F801808189830E5F87
S11317401F4F88248394912C530113C02801F2E085
S11317504F0E511CF801A080B18036FE03C0692DE4
S113176070E002C06FEF7FEFC5010E94FB0C4C01DB
S11317708201F32DFF773F2E16C0280122E0420E8E
S1131780511CF801A080B18036FE03C0692D70E0C1
S113179002C06FEF7FEFC5010E94F00C4C01F32DE6
S11317A0F0683F2E820133FC1BC0822D90E0881626
S11317B09906B0F4B60180E290E00E94060D2A94E6
S11317C0F4CFF50137FC859137FE81915F01B601B5
S11317D090E00E94060D21102A9421E0821A9108BB
S11317E08114910471F7E8C0843611F0893641F50B
S11317F0F80137FE07C060817181828193810C5F9B
S11318001F4F08C060817181072E000C880B990B53
S11318100E5F1F4FF32DFF763F2E97FF09C0909563
S11318208095709561957F4F8F4F9F4FF0683F2E45
S11318302AE030E0A3010E94420D882E861845C09C
S1131840853731F4232D2F7EB22E2AE030E025C0D7
S1131850932D997FB92E8F36C1F018F4883579F01D
S1131860B5C0803719F0883721F0B0C0E92FE061A6
S1131870BE2EB4FE0DC0FB2DF460BF2E09C034FE95
S11318800AC0292F2660B22E06C028E030E005C029
S113189020E130E002C020E132E0F801B7FE07C0E9
S11318A060817181828193810C5F1F4F06C06081CA
S11318B0718180E090E00E5F1F4FA3010E94420DF2
S11318C0882E8618FB2DFF773F2E36FE0DC0232D64
S11318D02E7FA22E891458F434FE0BC032FC09C0AA
S11318E0832D8E7EA82E05C0B82CA32C03C0B82C43
S11318F001C0B92CA4FE0FC0FE01E80DF11D8081CA
S1131900803321F49A2D997EA92E09C0A2FE06C027
S1131910B394B39404C08A2D867809F0B394A3FCDD
S113192011C0A0FE06C0B21488F4280C922C9B1897
S11319300EC0B21460F4B60180E290E00E94060D7D
S1131940B394F7CFB21418F42B1802C0982C212C9E
S1131950A4FE10C0B60180E390E00E94060DA2FE32
S113196017C0A1FC03C088E790E002C088E590E0BE
S1131970B6010CC08A2D867859F0A1FE02C08BE214
S113198001C080E2A7FC8DE2B60190E00E94060D42
S1131990891438F4B60180E390E00E94060D9A940D
S11319A0F7CF8A94F301E80DF11D8081B60190E030
S11319B00E94060D8110F5CF222009F442CEB60113
S11319C080E290E00E94060D2A94F6CFF60186810B
S11319D0978102C08FEF9FEF2B96E2E10C94B90D33
S11319E0FC010590615070400110D8F780959095E6
S11319F08E0F9F1F0895FC016150704001900110EB
S1131A00D8F7809590958E0F9F1F08950F931F937D
S1131A10CF93DF93FB01238121FD03C08FEF9FEF61
S1131A202CC022FF16C0468157812481358142177C
S1131A30530744F4A081B1819D012F5F3F4F208360
S1131A4031838C93268137812F5F3F4F26833783E1
S1131A5014C08B01EC01FB010084F185E02D099594
S1131A60892BE1F6D80116968D919C9117970196D2
S1131A7016968D939C931797CE01DF91CF911F916A
S1131A800F910895FA01AA27283051F1203181F1EC
S1131A90E8946F936E7F6E5F7F4F8F4F9F4FAF4F72
S1131AA0B1E03ED0B4E03CD0670F781F891F9A1F85
S1131AB0A11D680F791F8A1F911DA11D6A0F711D39
S1131AC0811D911DA11D20D009F468943F912AE045
S1131AD0269F11243019305D3193DEF6CF0108952D
S1131AE0462F4770405D4193B3E00FD0C9F7F6CF5E
S1131AF0462F4F70405D4A3318F0495D31FD405226
S1131B00419302D0A9F7EACFB4E0A69597958795BB
S1131B1077956795BA95C9F700976105710508959A
S1131B209B01AC010A2E0694579547953795279546
S1131B30BA95C9F7620F731F841F951FA01D0895DE
S1131B402F923F924F925F926F927F928F929F92C9
S1131B50AF92BF92CF92DF92EF92FF920F931F93B7
S1131B60CF93DF93CDB7DEB7CA1BDB0BCDBFDEBF90
S1131B7009942A88398848885F846E847D848C849B
S1131B809B84AA84B984C884DF80EE80FD800C81A4
S1131B901B81AA81B981CE0FD11DCDBFDEBFED015E
S1091BA00895F894FFCF44
S1131BA61A042A043E048C04C2041F053B04490497
S1131BB6380422046C0473047A0485040A044C046D
S1131BC65C057E050000000200000000070A000014
S1131BD6000072656164206D61785F726F773A25E3
S1131BE6640D0A00436C656172206D61785F726FE3
S1131BF6773A25640D0A0068656C6C6F20726F77FE
S1131C065F6E756D3A2025640D0A00757064617403
S1131C1665206D61785F726F773A25640D0A006EF0
S1131C2665775F6672616D5F7374617475735F6601
S1131C366C61675F636C656172206164647265736D
S10B1C46733A25640D0A000045
S9030000FC
